:100000000C943E000C945B000C945B000C945B0021
:100010000C945B000C945B000C945B000C945B00F4
:100020000C945B000C945B000C945B000C945B00E4
:100030000C945B000C945B000C94D0040C94B804FA
:100040000C945B000C945B000C945B000C945B00C4
:100050000C945B000C945B000C94D3010C94950100
:100060000C946F010C945B000C945B000C94870063
:100070000C945B000C945B000C945B0011241FBE7D
:10008000CFEFD8E0DEBFCDBF11E0A0E0B1E0E8EAFD
:10009000FCE002C005900D92A430B107D9F721E031
:1000A000A4E0B1E001C01D92A633B207E1F70E94BF
:1000B00068020C9452060C940000249A08952C981F
:1000C00008952C9A089520912401E22FF0E0EE0F7C
:1000D000FF1FEC5FFE4F918380832F5F203119F06B
:1000E0002093240102C010922401E4E0F1E080E0BA
:1000F00090E021913191820F931F21E0E432F207C9
:10010000C1F724E0969587952A95E1F708951F9207
:100110000F920FB60F9211242F933F934F935F933B
:100120006F937F938F939F93AF93BF93CF93DF93FF
:10013000EF93FF9380910001813011F520917800B9
:100140008091790090E0982F8827820F911D0E945E
:1001500063002EE0AC01249FC001259F900D112467
:10016000EC01C05BDA4FCC3D55E0D50718F40E9496
:100170005F0002C00E946100D0932701C093260156
:1001800010922501FF91EF91DF91CF91BF91AF9137
:100190009F918F917F916F915F914F913F912F919F
:1001A0000F900FBE0F901F901895CF93DF93EFE73E
:1001B000F0E0808183608083EEE7F0E080818066FC
:1001C0008083EAE7F0E08081806880838081887F97
:1001D0008083808182608083ACE7B0E08C918F77F0
:1001E0008C938C9180648C93CBE7D0E08881806283
:1001F000888388818F7B88838C91807E85608C93B7
:100200008C918F7D8C9388818068888380818860C1
:100210008083DF91CF91089590912501911112C0B3
:1002200091E090932501813069F490917C00907E5B
:10023000956090937C0090917A00906490937A00FE
:1002400080930001089580912601909127010895DF
:1002500090932701809326010895539808953B9A1F
:10026000439A0895539A5B9A08953B9A4398089548
:10027000539A5B98089586E080936C0082E08093A7
:100280006B00E8E6F0E0808186608083089569B1C4
:1002900096B189B161FB442740F950E0440F551FE6
:1002A000440F551F82FB222720F930E0220F331F15
:1002B000242B96959170822F892B11F0873051F461
:1002C00090912A019A3030F4809129019F5F909398
:1002D0002A0108958093290110922A0108951F92FE
:1002E0000F920FB60F9211242F933F934F935F936A
:1002F0006F937F938F939F93AF93BF93EF93FF93EE
:100300000E94BB020E949103FF91EF91BF91AF91B8
:100310009F918F917F916F915F914F913F912F911D
:100320000F900FBE0F901F9018951F920F920FB64F
:100330000F9211242F933F934F935F936F937F936B
:100340008F939F93AF93BF93EF93FF930E94BB0252
:100350000E949103319902C080E009C08091280178
:10036000811104C00E94E2040E94F20281E08093A5
:100370002801FF91EF91BF91AF919F918F917F9154
:100380006F915F914F913F912F910F900FBE0F9002
:100390001F90189588E080936A00E8E6F0E080817D
:1003A0008160808308951F920F920FB60F921124DF
:1003B0008F9382E0809302018F910F900FBE0F9078
:1003C0001F901895CF93DF93C3B1C3FBCC27C0F91F
:1003D000DC2F80910101C817B1F00E94F504853F20
:1003E000914018F00E945F00F8CF0E946100D11187
:1003F00002C082E001C081E00E94B20280E00E945F
:10040000BE02C0930101DF91CF9108950F931F9316
:10041000CF93DF930E94F504EC010E9423018C012D
:100420000E9498028130F9F4CE01801B910B893132
:100430002CEF92071CF00E94380117C0813328EF7F
:1004400092071CF00E94380108C08934944F1CF0B8
:100450000E9432010AC00E943201DF91CF911F91A8
:100460000F910C942F010E942D01DF91CF911F91CC
:100470000F910C943501809102018230C9F481E022
:100480000E940C010E949B0280912B0190912C01F3
:10049000019690932C0180932B01833E9440B8F0F9
:1004A00081E08093020110922C0110922B0108959B
:1004B0000E94E2010E949802811107C00E9423015C
:1004C0008D3D954010F00E94AD020C9406020895F7
:1004D0000E943F030E94D5000E94A3020E943B019C
:1004E0000E945D000E94AF040E94C7040E94CA01DE
:1004F00086E089BD09B400FEFDCF0E9461007894BA
:100500000E94A904813029F480E00E94AC040E947A
:100510003B020E94F504892B99F70E9498028130D2
:1005200079F786E90E94BE0286E90E949103E8CF2E
:1005300080912D01089510922D0180E090E00E949D
:1005400028010C945F000E949B0280E090E00E94D2
:10055000280180E090E00C94FA0481E080932D0162
:100560000C946100813009F082E0809303010895CA
:1005700080910301089580913201089580933201A2
:1005800008952091300130913101820F931F8F3FE8
:10059000910519F014F08FEF90E090933101809362
:1005A0003001809130019091310181309F4F34F4BE
:1005B00081E09FEF90933101809330016091300191
:1005C00070913101072E000C880B990B0E94590580
:1005D00020E030E040E45FE30E94BD050E94210579
:1005E000CB0108950F931F93CF93DF930E942301B4
:1005F0008D3D9540A8F10E94F504EC010E94230175
:10060000C81BD90BCE010E94C1028C01BE01DD0FB7
:10061000880B990B0E94590520E030E040E85EE32A
:100620000E94BD050E942105600F711F6F3F71057B
:1006300021F01CF08FEF90E00AC06D3771052CF0AF
:1006400070932F0160932E0106C08DE790E0909388
:100650002F0180932E0180912E018093320108C0DA
:1006600010922F0110922E01109232010E949B02D3
:1006700080913201DF91CF911F910F91089585B143
:100680008C7385B94098589884B1836C84B9389A32
:10069000509A8FE38093B6001092A1001092A000B0
:1006A0001092A30081E08093A2001092A500109206
:1006B000A4001092A7001092A6001092A9008093A7
:1006C000A8001092AB001092AA001092AD001092F8
:1006D000AC001092AF008093AE001092B100109267
:1006E000B0001092B3009EEF9093B20094E190930B
:1006F000B50098ED9093B80028EF2093B90090933F
:10070000BA009FE09093BC001092BB008093B700AA
:10071000089585B18C7385B9409858981092B600A9
:100720000895CF93DF93D82F0E949802811128C09B
:100730000E9489031092A1001092A0001092A300C1
:1007400081E08093A2001092A5001092A400109264
:10075000A7001092A6001092A9008093A800109202
:10076000AB001092AA001092AD001092AC00109253
:10077000AF008093AE001092B1001092B000E6C0BE
:100780008FE38093B6000E944701C82F0E94B802F1
:10079000813011F4C095C77084E38093B500C330F5
:1007A00009F464C000F5C13009F43FC0C23009F05B
:1007B000C8C01092A1001092A0001092A30081E086
:1007C0008093A2001092A500D093A4001092A700DD
:1007D000D093A6001092A9008093A8001092AB00BD
:1007E0001092AA009CC0C53009F480C008F464C00F
:1007F000C63009F0A6C01092A1001092A00010927D
:10080000A30081E08093A2001092A500D093A400E1
:100810001092A7001092A6001092A9008093A80041
:100820001092AB001092AA007FC01092A100D0934A
:10083000A0001092A300C093A2001092A5001092F5
:10084000A4001092A7001092A6001092A900C093D5
:10085000A8001092AB001092AA001092AD00109266
:10086000AC001092AF00C093AE0021C01092A10066
:100870001092A0001092A30081E08093A200109239
:10088000A5001092A4001092A700D093A600109289
:10089000A9008093A8001092AB001092AA001092B9
:1008A000AD001092AC001092AF008093AE00109299
:1008B000B100D093B00047C01092A1001092A000E8
:1008C0001092A30081E08093A2001092A5001092E4
:1008D000A4001092A7001092A6001092A900809385
:1008E000A8001092AB00D093AA001EC01092A100E5
:1008F000D093A0001092A30081E08093A2001092F8
:10090000A5001092A4001092A7001092A6001092C9
:10091000A9008093A8001092AB00D093AA00109277
:10092000AD001092AC0004C01092AD00D093AC00AA
:100930001092AF008093AE001092B1001092B00000
:1009400002C00E94890384E18093B500DF91CF91BA
:10095000089580913501089580933501089582E0CE
:1009600084BD93E095BD97E097BD80936E00089598
:100970001F920F920FB60F9211248F9381E08093F4
:1009800035018F910F900FBE0F901F901895109208
:10099000800083E08093810081E080936F00089560
:1009A0001F920F920FB60F92112410928500109291
:1009B000840010923401109233010F900FBE0F90FB
:1009C0001F901895E4E8F0E02081318111821082B7
:1009D00040E050E060EE70E782E790E00E94FF04A4
:1009E0003093340120933301089580913301909125
:1009F0003401089590933401809333010895A1E266
:100A00001A2EAA1BBB1BFD010DC0AA1FBB1FEE1F88
:100A1000FF1FA217B307E407F50720F0A21BB30BD3
:100A2000E40BF50B661F771F881F991F1A9469F74F
:100A300060957095809590959B01AC01BD01CF01AB
:100A400008950E9428056894B1110C94B705089583
:100A50000E949C0588F09F5798F0B92F9927B751AD
:100A6000B0F0E1F0660F771F881F991F1AF0BA9552
:100A7000C9F714C0B13091F00E94B605B1E00895F5
:100A80000C94B605672F782F8827B85F39F0B93FE7
:100A9000CCF3869577956795B395D9F73EF4909505
:100AA0008095709561957F4F8F4F9F4F0895E89483
:100AB00009C097FB3EF490958095709561957F4FA6
:100AC0008F4F9F4F9923A9F0F92F96E9BB27939554
:100AD000F695879577956795B795F111F8CFFAF464
:100AE000BB0F11F460FF1BC06F5F7F4F8F4F9F4F95
:100AF00016C0882311F096E911C0772321F09EE8F3
:100B0000872F762F05C0662371F096E8862F70E058
:100B100060E02AF09A95660F771F881FDAF7880F32
:100B20009695879597F9089557FD9058440F551F4E
:100B300059F05F3F71F04795880F97FB991F61F05F
:100B40009F3F79F087950895121613061406551FD6
:100B5000F2CF4695F1DF08C0161617061806991F42
:100B6000F1CF86957105610508940895E894BB2737
:100B700066277727CB0197F908950E94D0050C943A
:100B800041060E94330638F00E943A0620F0952371
:100B900011F00C942A060C94300611240C94B7051D
:100BA0000E94940570F3959FC1F3950F50E0551F77
:100BB000629FF001729FBB27F00DB11D639FAA27B2
:100BC000F00DB11DAA1F649F6627B00DA11D661F01
:100BD000829F2227B00DA11D621F739FB00DA11D22
:100BE000621F839FA00D611D221F749F3327A00DDC
:100BF000611D231F849F600D211D822F762F6A2F78
:100C000011249F5750409AF0F1F088234AF0EE0FDC
:100C1000FF1FBB1F661F771F881F91505040A9F709
:100C20009E3F510580F00C942A060C94B7055F3F57
:100C3000E4F3983ED4F3869577956795B795F79545
:100C4000E7959F5FC1F7FE2B880F911D96958795BD
:100C500097F9089597F99F6780E870E060E008953C
:100C60009FEF80EC089500240A94161617061806C4
:100C70000906089500240A941216130614060506A0
:100C80000895092E0394000C11F4882352F0BB0F31
:100C900040F4BF2B11F460FF04C06F5F7F4F8F4F94
:080CA0009F4F0895F894FFCF67
:040CA8000102020241
:00000001FF
