:100000000C943E000C945B000C945B000C945B0021
:100010000C945B000C945B000C945B000C945B00F4
:100020000C945B000C945B000C945B000C945B00E4
:100030000C945B000C945B000C94AE040C9496043E
:100040000C945B000C945B000C945B000C945B00C4
:100050000C945B000C945B000C94D3010C94950100
:100060000C946F010C945B000C945B000C94870063
:100070000C945B000C945B000C945B0011241FBE7D
:10008000CFEFD8E0DEBFCDBF11E0A0E0B1E0E2E00D
:10009000FAE002C005900D92A430B107D9F721E033
:1000A000A4E0B1E001C01D92A633B207E1F70E94BF
:1000B00068020C94FF040C940000249A08952C9874
:1000C00008952C9A089520912401E22FF0E0EE0F7C
:1000D000FF1FEC5FFE4F918380832F5F203119F06B
:1000E0002093240102C010922401E4E0F1E080E0BA
:1000F00090E021913191820F931F21E0E432F207C9
:10010000C1F724E0969587952A95E1F708951F9207
:100110000F920FB60F9211242F933F934F935F933B
:100120006F937F938F939F93AF93BF93CF93DF93FF
:10013000EF93FF9380910001813011F520917800B9
:100140008091790090E0982F8827820F911D0E945E
:1001500063002EE0AC01249FC001259F900D112467
:10016000EC01C05BDA4FCC3D55E0D50718F40E9496
:100170005F0002C00E946100D0932701C093260156
:1001800010922501FF91EF91DF91CF91BF91AF9137
:100190009F918F917F916F915F914F913F912F919F
:1001A0000F900FBE0F901F901895CF93DF93EFE73E
:1001B000F0E0808183608083EEE7F0E080818066FC
:1001C0008083EAE7F0E08081806880838081887F97
:1001D0008083808182608083ACE7B0E08C918F77F0
:1001E0008C938C9180648C93CBE7D0E08881806283
:1001F000888388818F7B88838C91807E85608C93B7
:100200008C918F7D8C9388818068888380818860C1
:100210008083DF91CF91089590912501911112C0B3
:1002200091E090932501813069F490917C00907E5B
:10023000956090937C0090917A00906490937A00FE
:1002400080930001089580912601909127010895DF
:1002500090932701809326010895539808953B9A1F
:10026000439A0895539A5B9A08953B9A4398089548
:10027000539A5B98089586E080936C0082E08093A7
:100280006B00E8E6F0E0808186608083089569B1C4
:1002900096B189B161FB442740F950E0440F551FE6
:1002A000440F551F82FB222720F930E0220F331F15
:1002B000242B96959170822F892B11F0873051F461
:1002C00090912A019A3030F4809129019F5F909398
:1002D0002A0108958093290110922A0108951F92FE
:1002E0000F920FB60F9211242F933F934F935F936A
:1002F0006F937F938F939F93AF93BF93EF93FF93EE
:100300000E94BB020E946F03FF91EF91BF91AF91DA
:100310009F918F917F916F915F914F913F912F911D
:100320000F900FBE0F901F9018951F920F920FB64F
:100330000F9211242F933F934F935F936F937F936B
:100340008F939F93AF93BF93EF93FF930E94BB0252
:100350000E946F03319902C080E009C0809128019A
:10036000811104C00E94C0040E94E80281E08093D1
:100370002801FF91EF91BF91AF919F918F917F9154
:100380006F915F914F913F912F910F900FBE0F9002
:100390001F90189588E080936A00E8E6F0E080817D
:1003A0008160808308951F920F920FB60F921124DF
:1003B0008F9382E0809302018F910F900FBE0F9078
:1003C0001F901895CF93DF93C3B1C3FBCC27C0F91F
:1003D000DC2F80910101C817B1F00E94D304853F42
:1003E000914018F00E945F00F8CF0E946100D11187
:1003F00002C082E001C081E00E94B20280E00E945F
:10040000BE02C0930101DF91CF9108950F931F9316
:10041000CF93DF930E94D304EC010E9423018C014F
:100420000E9498028130F9F4CE01801B910B893132
:100430002CEF92071CF00E94380117C0813328EF7F
:1004400092071CF00E94380108C08934944F1CF0B8
:100450000E9432010AC00E943201DF91CF911F91A8
:100460000F910C942F010E942D01DF91CF911F91CC
:100470000F910C943501809102018230C9F481E022
:100480000E940C010E949B0280912B0190912C01F3
:10049000019690932C0180932B01833E9440B8F0F9
:1004A00081E08093020110922C0110922B0108959B
:1004B0000E94E2010E949802811107C00E9423015C
:1004C0008D3D954010F00E94AD020C9406020895F7
:1004D0000E941D030E94D5000E94A3020E943B01BE
:1004E0000E945D000E948D040E94A5040E94CA0122
:1004F00086E089BD09B400FEFDCF0E9461007894BA
:100500000E948704813029F480E00E948A040E94BE
:100510003B020E94D304892B99F70E9498028130F4
:1005200079F786E90E94BE0286E90E946F03E8CF50
:1005300080912D01089510922D0180E090E00E949D
:1005400028010C945F000E949B0280E090E00E94D2
:10055000280180E090E00C94D80481E080932D0184
:100560000C946100813009F082E0809303010895CA
:1005700080910301089580913201089580933201A2
:1005800008952091300130913101820F931F8F3FE8
:10059000910519F014F08FEF90E090933101809362
:1005A0003001809130019091310181309F4F34F4BE
:1005B00081E09FEF90933101809330018091300171
:1005C000909131019C01220F331F820F931F0895D8
:1005D000CF93DF930E9423018D3D954008F10E9447
:1005E000D304EC010E942301C81BD90BCE010E9449
:1005F000C1028C0F9D1F8F3F910521F01CF08FEFE2
:1006000090E005C08D37910514F48DE790E090934C
:100610002F0180932E0180912E018093320108C01A
:1006200010922F0110922E01109232010E949B0213
:1006300080913201DF91CF91089585B18C7385B996
:100640004098589884B1836C84B9389A509A8FE353
:100650008093B6001092A1001092A0001092A30007
:1006600081E08093A2001092A5001092A400109245
:10067000A7001092A6001092A9008093A8001092E3
:10068000AB001092AA001092AD001092AC00109234
:10069000AF008093AE001092B1001092B0001092A3
:1006A000B3009EEF9093B20094E19093B50098ED63
:1006B0009093B80028EF2093B9009093BA009FE080
:1006C0009093BC001092BB008093B700089585B151
:1006D0008C7385B9409858981092B6000895CF93BE
:1006E000DF93D82F0E949802811128C00E946703CF
:1006F0001092A1001092A0001092A30081E08093BC
:10070000A2001092A5001092A4001092A7001092CF
:10071000A6001092A9008093A8001092AB0010923E
:10072000AA001092AD001092AC001092AF0080931E
:10073000AE001092B1001092B000E6C08FE380933B
:10074000B6000E944701C82F0E94B802813011F400
:10075000C095C77084E38093B500C33009F464C0CA
:1007600000F5C13009F43FC0C23009F0C8C0109292
:10077000A1001092A0001092A30081E08093A2003B
:100780001092A500D093A4001092A700D093A600C9
:100790001092A9008093A8001092AB001092AA00BA
:1007A0009CC0C53009F480C008F464C0C63009F0AC
:1007B000A6C01092A1001092A0001092A30081E0A8
:1007C0008093A2001092A500D093A4001092A700DD
:1007D0001092A6001092A9008093A8001092AB007E
:1007E0001092AA007FC01092A100D093A000109296
:1007F000A300C093A2001092A5001092A400109232
:10080000A7001092A6001092A900C093A800109211
:10081000AB001092AA001092AD001092AC001092A2
:10082000AF00C093AE0021C01092A1001092A000B2
:100830001092A30081E08093A2001092A500109274
:10084000A4001092A700D093A6001092A900809354
:10085000A8001092AB001092AA001092AD00109266
:10086000AC001092AF008093AE001092B100D09314
:10087000B00047C01092A1001092A0001092A300F7
:1008800081E08093A2001092A5001092A400109223
:10089000A7001092A6001092A9008093A8001092C1
:1008A000AB00D093AA001EC01092A100D093A0006C
:1008B0001092A30081E08093A2001092A5001092F4
:1008C000A4001092A7001092A6001092A900809395
:1008D000A8001092AB00D093AA001092AD00109225
:1008E000AC0004C01092AD00D093AC001092AF00E9
:1008F0008093AE001092B1001092B00002C00E942E
:10090000670384E18093B500DF91CF9108958091D2
:100910003501089580933501089582E084BD93E008
:1009200095BD97E097BD80936E0008951F920F923A
:100930000FB60F9211248F9381E0809335018F9130
:100940000F900FBE0F901F9018951092800083E0BB
:100950008093810081E080936F0008951F920F9231
:100960000FB60F92112410928500109284001092FD
:100970003401109233010F900FBE0F901F90189505
:10098000E4E8F0E0208131811182108240E050E003
:1009900060EE70E782E790E00E94DD04309334015E
:1009A000209333010895809133019091340108958B
:1009B00090933401809333010895A1E21A2EAA1B6B
:1009C000BB1BFD010DC0AA1FBB1FEE1FFF1FA217FF
:1009D000B307E407F50720F0A21BB30BE40BF50BFC
:1009E000661F771F881F991F1A9469F76095709585
:1009F000809590959B01AC01BD01CF010895F894BD
:020A0000FFCF26
:040A020001020202E9
:00000001FF
